:04000000FDEF27F0F9
:104FCA00F0EC27F0410E046EEE0EE82EFED7042E0A
:104FDA00FCD700D0F7D7AC8AAB8E3C0E056E810E9B
:104FEA00066E06C001F0026A05500AEC28F01200AB
:104FFA0001EE00F0C80EEE6AE806FDE1086A076AEB
:10500A00000EF86E0001E5EF27F0036E000EAC6E9D
:10501A00000EAB6E03B0AC8803A202D0AC8CAB8C92
:10502A0003B4AC8E03A602D0AB8801D0AB8A03B816
:10503A00AC849E9803BAAB8603AC02D09D8A01D099
:10504A009D9A9E9A03AE02D09D8801D09D9801C078
:10505A00AFFF0250B06EAC8AAB8E949C948EACA813
:10506A001200ACBE1200948C120000000000000076
:10507A000000000000000000000000000000000026
:10508A000000000000000000000000000000000016
:10509A000000000000000000000000000000000006
:1050AA0000000000000000000000000000000000F6
:10623A000000000000000000000000010000000A49
:10624A0000000064000000E803000010270000A01E
:10625A0086010040420F008096980000E1F5050093
:10626A00CA9A3B00803FCDCC3DD7233C12833AB734
:10627A00D138C62737388635C0D633CC2B32708909
:10628A0030E7DB2EE53C1E42A20D00803F00204194
:10629A0000C842007A44401C4650C34724744997B8
:1062AA00184BBCBE4C6B6E4E03155079AD60F3496A
:1062BA007100000000000000000000000000000063
:1062CA0000000000000000000000000000000000C4
:1062DA0000000000000000000000000000000000B4
:1062EA0000000000000000000000000000000000A4
:1062FA000000000000000000000000000000000094
:107DCA0000000000803F72313FFE753E58633D95CA
:107DDA001D3CC5AE3A79213994803793A73556159B
:107DEA003400000000803FF0FFBEE2A93E8376BE69
:107DFA00AE2B3E3CC3BDD2133D78D3BB0A2D2D2DED
:107E0A002D2D2D2D2D2D2D2D2D2D2D2D2D2D2D2D98
:107E1A002D2D2D2D2D2D2D2D5072656469637469BC
:107E2A006F6E2044656D6F6E7374726174696F6EE4
:107E3A002D2D2D2D2D2D2D2D2D2D2D2D2D2D2D2D68
:107E4A002D2D2D2D2D2D000A2D2D2D2D2D2D2D2DA8
:107E5A002D2D2D2D2D2D2D2D2D2D4D6574726963F2
:107E6A007320666F7220746865204D6F64656C2D8F
:107E7A002D2D2D2D2D2D2D2D2D2D2D2D2D2D2D2D28
:107E8A002D2D2D2D2D2D2D2D2D2D0A002D2D2D2D68
:107E9A002D2D2D2D2D2D2D2D2D2D2D2D2D2D436FB0
:107EAA006E667573696F6E204D61747269782066AB
:107EBA006F7220746865204D6F64656C2D2D2D2DB1
:107ECA002D2D2D2D2D2D2D2D2D2D2D2D2D2D0A0028
:107EDA000A53686F77696E67206F666620746865F3
:107EEA002070726564696374696F6E20736B696C64
:107EFA006C7320696E2074686520696E70757420D1
:107F0A00766563746F723A200A000A4D6F64656C75
:107F1A0020416363757261637920636F6E7369646C
:107F2A006572696E67202564207465737420656EB6
:107F3A0074726965733A20256625250A004D6574B1
:107F4A007269637320666F7220436C6173732025B4
:107F5A00640A000A50726564696374656420636C1C
:107F6A006173732025640A00282531312E36662C68
:107F7A00202531312E3666290A00507265636973ED
:107F8A00696F6E2025322E32660A004974277320E3
:107F9A0061206D697373203A280A00497427732097
:107FAA006120686974203A290A00526563616C6C21
:107FBA002025322E32660A00436C617373652025D0
:107FCA00643A0A002020202020202020202000437C
:107FDA006C617373202564207C0020202564202096
:107FEA002000204325642020200025322E32662CD2
:067FFA00200025660000D6
:020000040020DA
:08000000FFFFFFFFFFFFFFFF00
:020000040030CA
:0E000000000C1F1EFF0181FF0FC00FE00F401C
:00000001FF
