:0400000057EF01F0C5
:10028600016E9EA8FED701C0ADFF1200AC8AAB8EF0
:100296003C0E5F6E810E01013F6F3FC101F0026AA5
:1002A6005F50E3EC01F0120002EE00F0C80EEE6AB9
:1002B600E806FDE101013E6B3D6B000EF86E0001A4
:1002C6009EEF01F0036E000E026E3A0E036005D03B
:1002D6002F0E036402D0010E026E02C001F001303F
:1002E600120001500302F3CF05F0F4CF06F00150DF
:1002F6000402F350062602500302F350062605C0F8
:1003060001F006C002F012000150021003100410A2
:10031600D8B408D0000E011A000E021A000E031AF5
:10032600800E041A01C001F002C002F003C003F0FF
:1003360004C004F0120049EC01F04A0E0101086FF6
:100346007F0E0101096FD0EC1AF0ACEC0BF0040E35
:100356000101086F7F0E0101096FD0EC1AF03DEC28
:100366000AF0710E0101086F7F0E0101096FD0ECD2
:100376001AF022EC04F0FFD7000E0001781B000EE5
:10038600791B000E7A1B800E7B1B74C060F075C053
:1003960061F076C062F077C063F078C064F079C02F
:1003A60065F07AC066F07BC067F07CEC18F060C040
:1003B60074F061C075F062C076F063C077F0120029
:1003C600036E000EAC6E000EAB6E03B0AC8803A2DB
:1003D60002D0AC8CAB8C03B4AC8E03A602D0AB8837
:1003E60001D0AB8A03B8AC849E9803BAAB8603AC43
:1003F60002D09D8A01D09D9A9E9A03AE02D09D8816
:1004060001D09D9801C0AFFF0250B06EAC8AAB8E92
:10041600949C948EACA81200ACBE1200948C120070
:100426001250131014101510D8B424D0010E166EE5
:1004360006D0D8901236133614361536162A15AE4F
:10044600F8D712500E5C13500F5814501058155010
:100456001158D8A008D012500E5E13500F5A1450DF
:10046600105A1550115AD8901532143213321232CE
:10047600162EE7D70EC00EF00FC00FF010C010F00A
:1004860011C011F01200000E066E02AE06D0016C0D
:10049600021ED8B0022A010E066E04AE04D0036C0A
:1004A600041ED8B0042A03500410D8B418D0010E84
:1004B600056E04D0D89003360436052A04AEFAD762
:1004C6000350015C04500258D8A004D00350015ECA
:1004D6000450025AD89004320332052EF1D7065042
:1004E600D8B404D0016C021ED8B0022A01C001F0B3
:1004F60002C002F01200000E096E000E0A6E000E17
:100506000B6E000E0C6E0550061007100810D8B4BE
:100516002AD0010E0D6E06D0D8900536063607365F
:1005260008360D2A08AEF8D7D89009360A360B36A3
:100536000C360550015C0650025807500358085007
:100546000458D8A009D00550015E0650025A07503B
:10055600035A0850045A0980D890083207320632E6
:1005660005320D2EE1D709C001F00AC002F00BC01A
:1005760003F00CC004F01200000E0C6E0AAE06D09A
:10058600096C0A1ED8B00A2A010E0C6E08AE06D0F7
:10059600076C081ED8B0082A010E0C1A000E0E6E43
:1005A600000E0D6E09500A10D8B41CD0010E0B6E49
:1005B60004D0D89009360A360B2A0AAEFAD7D89054
:1005C6000D360E360950075C0A500858D8A005D0DB
:1005D6000950075E0A50085A0D80D8900A3209322F
:1005E6000B2EEDD70C50D8B404D00D6C0E1ED8B01F
:1005F6000E2A0DC007F00EC008F0120001500210BE
:1006060003100410D8A411D005C0D9FF06C0DAFF24
:10061600000EDE6E000EDD6E000E016E000E026E26
:10062600000E036E000E046E120004507F0B076E60
:10063600086AD8900736083605C0D9FF06C0DAFF23
:1006460007C0DEFF08C0DDFF03AE03D0076A072A36
:1006560001D0076A075005C0D9FF06C0DAFFDE12CF
:10066600000EDD1205C0D9FF06C0DAFF820EDE26B7
:10067600FF0EDD2204800482048404860488048A32
:10068600049C039E01C001F002C002F003C003F007
:1006960004C004F01200000E0001EE6F000EEF6FB2
:1006A600800EF06FBF0EF16F0001F669F769000E5C
:1006B6000001F96F000EF86F0001F9BF08D00001C4
:1006C600F95148E10A0E0001F85DD8B043D0F8C0F0
:1006D600D2F0F9C0D3F0ECC0D4F0EDC0D5F088EC80
:1006E6000CF0D2C0F2F0D3C0F3F0D4C0F4F0D5C011
:1006F600F5F00001F62904E10001F729D8B414D079
:10070600EEC001F0EFC002F0F0C003F0F1C004F05B
:10071600F2C005F0F3C006F0F4C007F0F5C008F02B
:1007260034EC07F0D8B00CD0F2C0EEF0F3C0EFF026
:10073600F4C0F0F0F5C0F1F0F8C0F6F0F9C0F7F04B
:100746000001F84BF92B0001F9BFC1D70001F9519F
:1007560001E1B8D7F6C0ECF0F7C0EDF012005B345B
:100766005C345E6E5E50D8A409D0000E596E000E41
:100776005A6E000E5B6E000E5C6E120059C060F081
:100786005AC061F05BC062F05CC063F0200E06D018
:100796000001D8906333623361336033E82EF8D7B3
:1007A600000160515D6E5B8EFF0E5916FF0E5A16E4
:1007B600FF0E5B16000E5C16960E5E5E5EAE16D0E3
:1007C6005E50800A970FD8B009D0000E596E000E01
:1007D6005A6E000E5B6E000E5C6E1200D8905C3294
:1007E6005B325A3259325E3EF9D715D01F0E5E641F
:1007F6000FD0000E596E000E5A6E000E5B6E000E84
:100806005C6E1200D89059365A365B365C365E06F8
:100816005E50D8A4F7D75D50D8B408D05C1E5B1ED6
:100826005A1E596C000E5A225B225C2259C059F09E
:100836005AC05AF05BC05BF05CC05CF012000E0E52
:100846000101086F7E0E0101096FD0EC1AF0000E4F
:100856000101366F000E356F010136BF08D0010168
:10086600365149E10A0E0101355DD8B044D01F0E5C
:100876000101086F7F0E0101096F35C10AF136C10A
:100886000BF1D0EC1AF0830E0101086F7F0E010107
:10089600096F35C137F036C138F096EC04F037C031
:1008A6000AF138C00BF139C00CF13AC00DF1D0ECA9
:1008B6001AF0B30E0101086F7F0E0101096F35C1F1
:1008C60037F036C138F017EC05F037C00AF138C0FA
:1008D6000BF139C00CF13AC00DF1D0EC1AF0CF0E85
:1008E6000101086F7E0E0101096FD0EC1AF00101BB
:1008F600354B362BB1D7D10E0101086F7E0E0101A3
:10090600096FF1EC08F0FAC00AF1FBC00BF1FCC06C
:100916000CF1FDC00DF1000E01010F6F1E0E0E6FE2
:10092600D0EC1AF01200000E406E000E3F6E000E64
:10093600426E000E416E42BE06D0425026E10A0EBD
:10094600415CD8B022D041C001F042C002F0000E96
:10095600046E140E036E74EC01F0000E3B6E020E74
:100966003C6E01503B2602503C22D8903734D96E5B
:100976003834DA6E3B50D9263C50DA22DE503F2618
:10098600DD504022414A422AD6D737C001F038C04E
:1009960002F0000E046E140E036E74EC01F0000EED
:1009A6003B6E020E3C6E01503B2602503C22D89014
:1009B6003734D96E3834DA6E3B50D9263C50DA22B9
:1009C600DECF3DF0DDCF3EF03DC007F03EC008F083
:1009D600096A0A6A000E95EC09F007C01EF008C005
:1009E6001FF009C020F00AC021F03FC007F040C048
:1009F60008F0000E08BEFF0E096E0A6E010E95EC99
:100A060009F007C022F008C023F009C024F00AC08C
:100A160025F00CEC12F01EC037F01FC038F020C0D5
:100A260039F021C03AF01200000E406E000E3F6E03
:100A3600000E426E000E416E42BE06D0425026E1C6
:100A46000A0E415CD8B022D037C001F038C002F09F
:100A5600000E046E140E036E74EC01F0000E3B6E75
:100A6600020E3C6E01503B2602503C22D890413487
:100A7600D96E4234DA6E3B50D9263C50DA22DE502B
:100A86003F26DD504022414A422AD6D737C001F0E0
:100A960038C002F0000E046E140E036E74EC01F002
:100AA600000E3B6E020E3C6E01503B2602503C226D
:100AB600D8903734D96E3834DA6E3B50D9263C504C
:100AC600DA22DECF3DF0DDCF3EF03DC007F03EC07E
:100AD60008F0096A0A6A000E95EC09F007C01EF0D4
:100AE60008C01FF009C020F00AC021F03FC007F07F
:100AF60040C008F0000E08BEFF0E096E0A6E010E19
:100B060095EC09F007C022F008C023F009C024F0D4
:100B16000AC025F00CEC12F01EC037F01FC038F0EA
:100B260020C039F021C03AF01200000184510001C2
:100B360085110001861100018711D8A40AD0000E84
:100B46000001846F000E856F000E866F000E876FA2
:100B56001200000187517F0B5D6E5E6AD8905D368C
:100B66005E365D50000188275E5000018923000132
:100B760086AF03D05D6A5D2A01D05D6A5D500001D3
:100B86008827000E8923000189AF0FD0000E0101CE
:100B96003E6F220E3D6F000E0001846F000E856FC2
:100BA600000E866F000E876F1200000189BF1ED0EF
:100BB60000018905D8A01AD0000E01013E6F220E51
:100BC6003D6F000187AF09D0FF0E0001846FFF0E55
:100BD600856F7F0E866FFF0EE6D7FF0E0001846FCE
:100BE600FF0E856F7F0E866F7F0EDDD7000189357C
:100BF60089315E6E000188315D6E000187515D1896
:100C0600800B5D180001876F88C05DF0010E5D16D0
:100C16005D325D32000186515D187F0B5D18000163
:100C2600866F84C084F085C085F086C086F087C054
:100C360087F012007AC07CF07BC07DF00001D8906E
:100C46007C377D370001D8907C377D3778C07EF0C1
:100C560079C07FF000017C5100017E2700017D51A3
:100C660000017F237EC0F6FF7FC0F7FF0900F5CFA6
:100C760080F00900F5CF81F00900F5CF82F00A0077
:100C8600F5CF83F050D080C03BF081C03CF082C0ED
:100C96003DF083C03EF074C037F075C038F076C0C2
:100CA60039F077C03AF0C8EC14F037C060F038C0BD
:100CB60061F039C062F03AC063F000017A07D8A04B
:100CC6007B077AC07CF07BC07DF00001D8907C3732
:100CD6007D370001D8907C377D3778C07EF079C0AB
:100CE6007FF000017C5100017E2700017D5100014B
:100CF6007F237EC0F6FF7FC0F7FF0900F5CF64F0C3
:100D06000900F5CF65F00900F5CF66F00A00F5CFCA
:100D160067F07CEC18F060C080F061C081F062C0C2
:100D260082F063C083F000017A5100017B11D8A4E0
:100D3600AAD780C074F081C075F082C076F083C0F7
:100D460077F0120074C001F075C002F076C003F0AF
:100D560077C004F07C0E056E000E066E01EC03F003
:100D660000017DAF17D0000177AF0AD0000E000159
:100D7600746F000E756F800E766FBF0E776F120060
:100D8600000E0001746F000E756F000E766F000E78
:100D9600776F120000017D5105E11D0E00017C5D9B
:100DA600D8A009D074C074F075C075F076C076F01E
:100DB60077C077F0120074C059F075C05AF076C04B
:100DC6005BF077C05CF0B2EC03F059C007F05AC094
:100DD60008F05BC009F05CC00AF0010E95EC09F062
:100DE60007C078F008C079F009C07AF00AC07BF035
:100DF60074C001F075C002F076C003F077C004F04D
:100E060078C005F079C006F07AC007F07BC008F01C
:100E160034EC07F0D8B01CD078C060F079C061F02F
:100E26007AC062F07BC063F0000E0001646F000EB2
:100E3600656F800E666FBF0E676F7CEC18F060C042
:100E460074F061C075F062C076F063C077F012008E
:100E560078C074F079C075F07AC076F07BC077F010
:100E66001200000E0114096E000E02140A6E800EA6
:100E760003140B6E7F0E04140C6E09500A100B102F
:100E86000C10D8A408D0000E016E000E026E000EE3
:100E9600036E000E046E000E0514096E000E061495
:100EA6000A6E800E07140B6E7F0E08140C6E095026
:100EB6000A100B100C10D8A408D0000E056E000EF8
:100EC600066E000E076E000E086E04AE1DD001C041
:100ED60009F002C00AF003C00BF004C00CF0091EB2
:100EE6000A1E0B1E0C1E092A000E0A220B220C22B9
:100EF600000E0924016E000E0A20026E000E0B2061
:100F0600036E800E0C20046E08AE1DD005C009F0DD
:100F160006C00AF007C00BF008C00CF0091E0A1E36
:100F26000B1E0C1E092A000E0A220B220C22000E92
:100F36000924056E000E0A20066E000E0B20076EB1
:100F4600800E0C20086E000E011A000E021A000E0A
:100F5600031A800E041A000E051A000E061A000E59
:100F6600071A800E081A0550015C065002580750F1
:100F7600035808500458D8B002D0D8901200D88030
:100F86001200033404340E6E0E50D8A409D0000E9D
:100F9600016E000E026E000E036E000E046E12004D
:100FA600073408340D6E0D50D8A409D0000E016E1A
:100FB600000E026E000E036E000E046E1200038E0B
:100FC600FF0E0116FF0E0216FF0E0316000E041684
:100FD600078EFF0E0516FF0E0616FF0E0716000EED
:100FE6000816000E096E000E0A6E000E0B6E000E3D
:100FF6000C6E7F0E0E5E0D50A00F0E5E200E0D6E57
:10100600D89009360A360B360C360550015C065068
:1010160002580750035808500458D8A009D0055064
:10102600015E0650025A0750035A0850045A0980B6
:10103600D89001360236033604360D2EE1D70EAEB1
:1010460016D00E50800A9F0FD8B009D0000E016E40
:10105600000E026E000E036E000E046E1200D89093
:101066000C320B320A3209320E3EF9D715D01F0E5A
:101076000E640FD0000E016E000E026E000E036E9F
:10108600000E046E1200D89009360A360B360C365E
:101096000E060E50D8A4F7D709C001F00AC002F018
:1010A6000BC003F00CC004F0120003C009F00A6A7A
:1010B6000B6A0234093601E30A800950116E115099
:1010C600D8A409D0000E016E000E026E000E036E4B
:1010D600000E046E120007C009F00A6A0B6A063495
:1010E600093601E30A800950106E1050D8A409D0C1
:1010F600000E016E000E026E000E036E000E046EF0
:101106001200028EFF0E0116FF0E0216000E0316C7
:10111600068EFF0E0516FF0E0616000E0716000EAB
:101126000C6E000E0D6E000E0E6E000E0F6E7F0E14
:10113600115E1050980F115E180E106ED8900C3676
:101146000D360E360F360550015C06500258075014
:101156000358D8A007D00550015E0650025A075022
:10116600035A0C80D890013602360336102EE6D785
:1011760011AE16D01150800A970FD8B009D0000EC4
:10118600016E000E026E000E036E000E046E12005B
:10119600D8900F320E320D320C32113EF9D715D0DF
:1011A600170E11640FD0000E016E000E026E000EB7
:1011B600036E000E046E1200D8900C360D360E36F5
:1011C6000F3611061150D8A4F7D70CC001F00DC088
:1011D60002F00EC003F00FC004F01200000E010171
:1011E600056F000E046F000E0101076F000E066FFB
:1011F600010107BF08D0010107515BE11E0E010185
:10120600065DD8B056D006C101F007C102F0010E46
:10121600046E300E036E74EC01F0D70E012401014A
:10122600026F590E02200101036F02C1ECF003C1E7
:10123600EDF04EEC03F0ECC000F1EDC001F1300E24
:101246000001FE6F010E0001FF6F06C101F007C12C
:1012560002F0010E046E300E036E74EC01F0000114
:10126600FE5101260001FF510222D70E0124F66E1F
:10127600590E0220F76E0900F5CF59F00900F5CF97
:101286005AF00900F5CF5BF00A00F5CF5CF0B2EC3E
:1012960003F001010051591808E1010101515A18E2
:1012A600D8A403D00101044B052B0101064B072BE3
:1012B6009FD7000E226E000E236EF00E246E410E96
:1012C600256E04C107F005C108F0000E08BEFF0E2A
:1012D600096E0A6E010E95EC09F007C01EF008C0F3
:1012E6001FF009C020F00AC021F00CEC12F01EC05D
:1012F60037F01FC038F020C039F021C03AF0000E98
:101306003B6E000E3C6EC80E3D6E420E3E6EC8EC45
:1013160014F037C0FAF038C0FBF039C0FCF03AC020
:10132600FDF012000F6E0F50D8A40AAE1AD007C0F7
:101336000BF008C00CF009C00DF00AC00EF00B1E31
:101346000C1E0D1E0E1E0B2A000E0C220D220E2246
:101356000BC011F00CC012F00DC013F00EC014F04B
:1013660008D007C011F008C012F009C013F00AC077
:1013760014F00750081009100A10D8A409D0000E5E
:10138600076E000E086E000E096E000E0A6E120041
:10139600960E106E06D0102AD890143213321232DE
:1013A6001132000E11140B6E000E12140C6E000E8C
:1013B60013140D6EFE0E14140E6E0B500C100D1041
:1013C6000E10D8B40DD0E7D7102A010E1126000E44
:1013D600122213221422D8901432133212321132EE
:1013E600000E11140B6E000E12140C6E000E131468
:1013F6000D6EFF0E14140E6E0B500C100D100E1009
:10140600D8B407D0E1D71006D89011361236133665
:10141600143613BE03D0020E1060F5D710B008D0F4
:10142600FF0E1116FF0E12167F0E1316FF0E141660
:10143600D890103210C00BF00C6A0D6A0E6A0BC001
:101446000EF00D6A0C6A0B6A0B5011120C50121238
:101456000D5013120E5014120F50D8A40AAE01D01C
:10146600148E11C007F012C008F013C009F014C0A2
:101476000AF01200530E0101086F7E0E0101096F7A
:10148600D0EC1AF0CD0E0101086F7F0E0101096F35
:10149600D0EC1AF0000E01013C6F000E3B6F01010B
:1014A6003CBF08D001013C5115E10A0E01013B5D2C
:1014B600D8B010D0EB0E0101086F7F0E0101096F45
:1014C6003BC10AF13CC10BF1D0EC1AF001013B4BD8
:1014D6003C2BE5D7CF0E0101086F7E0E0101096F87
:1014E600D0EC1AF0000E01013C6F000E3B6F0101BB
:1014F6003CBF0AD001013C5106E10A0E01013B5DE9
:10150600D8B0120001D01200D80E0101086F7F0E6C
:101516000101096F3BC10AF13CC10BF1D0EC1AF095
:10152600000E01013A6F000E396F01013ABF08D073
:1015360001013A513CE10A0E0101395DD8B037D0BC
:101546003BC101F03CC102F0000E046E140E036EA6
:1015560074EC01F0000E0101356F020E0101366FC9
:10156600015001013527025001013623D8900101AF
:101576003935D96E01013A35DA6E01013551D92670
:1015860001013651DA22DECF37F1DDCF38F1E30E35
:101596000101086F7F0E0101096F37C10AF138C1D9
:1015A6000BF1D0EC1AF00101394B3A2BBED7CF0E16
:1015B6000101086F7E0E0101096FD0EC1AF00101DE
:1015C6003B4B3C2B01013CBF9FD701013C5101E144
:1015D60094D71200000187AF0FD0000E01013E6FB5
:1015E600210E3D6F000E0001846F000E856F000E08
:1015F600866F000E876F120000018451000185116D
:101606000001861100018711D8A40FD0000E010138
:101616003E6F220E3D6F000E0001846F000E856F37
:10162600000E866F000E876F1200000E3B6E000ED6
:101636003C6E000E3D6E400E3E6E5D0E056E000E5B
:10164600066E84C001F085C002F086C003F087C034
:1016560004F001EC03F001C037F002C038F003C01B
:1016660039F004C03AF0C8EC14F037C060F038C066
:1016760061F039C062F03AC063F0000E0001646F99
:10168600000E656F800E666FBF0E676F7CEC18F0FC
:1016960060C084F061C085F062C086F063C087F0E8
:1016A6005D06D8A05E0684C074F085C075F086C05D
:1016B60076F087C077F09F0E0001786F7D0E0001EF
:1016C600796F000E00017B6F080E7A6F1DEC06F035
:1016D60074C084F075C085F076C086F077C087F058
:1016E600180E3B6E720E3C6E310E3D6E3F0E3E6E18
:1016F6005DC007F05EC008F0000E08BEFF0E096E62
:101706000A6E010E95EC09F007C037F008C038F0F4
:1017160009C039F00AC03AF0C8EC14F037C060F0DE
:1017260038C061F039C062F03AC063F084C064F03A
:1017360085C065F086C066F087C067F07CEC18F05F
:1017460060C084F061C085F062C086F063C087F037
:101756001200000E0101096F000E086F010109BF9A
:1017660008D00101095144E10A0E0101085DD8B013
:101776003FD0000E0101076F000E066F010107BF83
:1017860008D00101075130E10A0E0101065DD8B00B
:101796002BD008C101F009C102F0000E046E140E30
:1017A600036E74EC01F0000E0001FA6F020E0001E8
:1017B600FB6F01500001FA2702500001FB23D8906D
:1017C60001010635D96E01010735DA6E0001FA51BD
:1017D600D9260001FB51DA22000EDE6E000EDD6E08
:1017E6000101064B072BCAD70101084B092BB6D7B7
:1017F600000E0101096F000E086F010109BF0AD032
:101806000101095106E11E0E0101085DD8B0120062
:1018160001D0120008C101F009C102F0010E046EE8
:10182600300E036E74EC01F0D70E01240101026F35
:10183600590E02200101036F02C1ECF003C1EDF065
:101846004EEC03F0ECC000F1EDC001F1300E0001EA
:10185600FA6F010E0001FB6F08C101F009C102F029
:10186600010E046E300E036E74EC01F00001FA51A5
:1018760001260001FB510222D70E0124F66E590EF5
:101886000220F76E0900F5CF59F00900F5CF5AF09E
:101896000900F5CF5BF00A00F5CF5CF0B2EC03F07F
:1018A60059C004F15AC005F104C101F005C102F0A6
:1018B600000E046E140E036E74EC01F0000E0001AF
:1018C600FA6F020E0001FB6F01500001FA27025069
:1018D6000001FB23D89001010035D96E01010135C5
:1018E600DA6E0001FA51D9260001FB51DA22DE2A0E
:1018F600000EDD220101084B092B010109BF8AD721
:101906000101095101E17FD71200000E0001E66FC7
:10191600000EE76F000EE86F000EE96F000E000183
:10192600EB6F000EEA6F0001EBBF0AD00001EB512E
:1019360006E14C0E0001EA5DD8B0CCD001D0CAD089
:10194600EAC0D6F0EBC0D7F00001D890D637D7372B
:101956000001D890D637D737D2C001F0D3C002F0F5
:10196600010E046E300E036E74EC01F0670E00017A
:10197600D86F4D0E0001D96F01500001D8270250D3
:101986000001D9230001D6510001D8270001D75103
:101996000001D923D8C0F6FFD9C0F7FF0900F5CF5B
:1019A600B2F00900F5CFB3F00900F5CFB4F00A00A4
:1019B600F5CFB5F0EAC0DAF0EBC0DBF00001D89065
:1019C600DA37DB370001D890DA37DB37D2C001F0DF
:1019D600D3C002F0010E046E300E036E74EC01F0FB
:1019E600870E0001DC6F410E0001DD6F0150000122
:1019F600DC2702500001DD230001DA510001DC275B
:101A06000001DB510001DD23DCC0F6FFDDC0F7FF7E
:101A16000900F5CFAEF00900F5CFAFF00900F5CF1C
:101A2600B0F00A00F5CFB1F0EAC0DEF0EBC0DFF0AF
:101A36000001D890DE37DF370001D890DE37DF3778
:101A4600D4C0E0F0D5C0E1F00001DE510001E0278E
:101A56000001DF510001E123E0C0F6FFE1C0F7FF1E
:101A66000900F5CFAAF00900F5CFABF00900F5CFD4
:101A7600ACF00A00F5CFADF070EC0EF0AAC0E2F0C3
:101A8600ABC0E3F0ACC0E4F0ADC0E5F0E6C060F09A
:101A9600E7C061F0E8C062F0E9C063F0E2C064F05C
:101AA600E3C065F0E4C066F0E5C067F07CEC18F0D2
:101AB60060C0E6F061C0E7F062C0E8F063C0E9F03C
:101AC6000001EA4BEB2B0001EBBF3AD70001EB51CB
:101AD60001E12FD7E6C0D2F0E7C0D3F0E8C0D4F0DA
:101AE600E9C0D5F01200000E0001A56F0001955166
:101AF600000196110001971100019811D8A423D076
:101B0600000E016E000E026E000E036E000E046ED5
:101B160099C005F09AC006F09BC007F09CC008F07B
:101B260034EC07F0D8A005D0000E01013E6F210E5F
:101B36003D6F000E0001956F000E966F000E976FB9
:101B4600000E986F12000001995100019A110001D0
:101B56009B1100019C11D8A40AD0000E0001956FBC
:101B6600000E966F800E976F3F0E986F1200000161
:101B760098AF54D099C059F09AC05AF09BC05BF008
:101B86009CC05CF0B2EC03F059C0A6F05AC0A7F0B6
:101B96005BC0A8F05CC0A9F0A6C007F0A7C008F01B
:101BA600A8C009F0A9C00AF0000E95EC09F00001E2
:101BB600995107180DE100019A51081809E1000131
:101BC6009B51091805E100019C510A18D8B40FD0A1
:101BD600000E01013E6F210E3D6F000E0001956F54
:101BE600000E966F000E976F000E986F12000001A0
:101BF600A651010B0001A56F95C001F096C002F039
:101C060097C003F098C004F087EC01F001C095F08E
:101C160002C096F003C097F004C098F095C084F017
:101C260096C085F097C086F098C087F0EDEC0AF074
:101C360084C09DF085C09EF086C09FF087C0A0F04E
:101C46009DC037F09EC038F09FC039F0A0C03AF072
:101C560099C03BF09AC03CF09BC03DF09CC03EF062
:101C6600C8EC14F037C0A1F038C0A2F039C0A3F018
:101C76003AC0A4F0A1C08AF0A2C08BF0A3C08CF039
:101C8600A4C08DF0C6EC10F08AC095F08BC096F01B
:101C96008CC097F08DC098F00001A5510001D8B412
:101CA60013D095C001F096C002F097C003F098C01B
:101CB60004F087EC01F001C095F002C096F003C075
:101CC60097F004C098F0120095C095F096C096F073
:101CD60097C097F098C098F01200000E0001996F17
:101CE600000E9A6F000E9B6F400E9C6FB2C095F06F
:101CF600B3C096F0B4C097F0B5C098F076EC0DF08E
:101D060095C0BAF096C0BBF097C0BCF098C0BDF0C5
:101D1600AAC064F0ABC065F0ACC066F0ADC067F0B9
:101D2600AEC001F0AFC002F0B0C003F0B1C004F025
:101D360087EC01F001C060F002C061F003C062F000
:101D460004C063F07CEC18F060C0BEF061C0BFF068
:101D560062C0C0F063C0C1F0000E0001996F000EB2
:101D66009A6F000E9B6F400E9C6FBEC095F0BFC071
:101D760096F0C0C097F0C1C098F076EC0DF095C013
:101D8600C2F096C0C3F097C0C4F098C0C5F0000E6C
:101D96003B6E000E3C6E000E3D6E400E3E6EBAC0AF
:101DA60037F0BBC038F0BCC039F0BDC03AF0C8EC63
:101DB60014F037C022F038C023F039C024F03AC0FE
:101DC60025F0C2C01EF0C3C01FF0C4C020F0C5C0BD
:101DD60021F00CEC12F01EC001F01FC002F020C072
:101DE60003F021C004F087EC01F001C0C6F002C088
:101DF600C7F003C0C8F004C0C9F0C6C08AF0C7C0A7
:101E06008BF0C8C08CF0C9C08DF0C6EC10F08AC04B
:101E1600B6F08BC0B7F08CC0B8F08DC0B9F0B2C0C8
:101E26003BF0B3C03CF0B4C03DF0B5C03EF0DB0EB5
:101E3600016E0F0E026EC90E036E400E046E66EC46
:101E460013F001C037F002C038F003C039F004C007
:101E56003AF0C8EC14F037C022F038C023F039C08D
:101E660024F03AC025F0000E1E6E000E1F6E800E86
:101E7600206E3F0E216E0CEC12F01EC0CAF01FC081
:101E8600CBF020C0CCF021C0CDF0CAC037F0CBC01B
:101E960038F0CCC039F0CDC03AF0B6C03BF0B7C090
:101EA6003CF0B8C03DF0B9C03EF0C8EC14F037C005
:101EB600CEF038C0CFF039C0D0F03AC0D1F0000132
:101EC600CE510001CF110001D0110001D111D8A4CB
:101ED6000AD0000E0001AA6F000EAB6F000EAC6FA9
:101EE600000EAD6F1200CEC084F0CFC085F0D0C01A
:101EF60086F0D1C087F0EDEC0AF084C0AAF085C068
:101F0600ABF086C0ACF087C0ADF012005C6E6D0E13
:101F16005C64ACD0000E0A6E0A0E096E000E046EEA
:101F2600640E036E5CC001F0026A46EC02F001C06A
:101F360007F002C008F0BFEC02F0D890073608366A
:101F4600D89007360836240E0726000E0822470EBC
:101F56000724F66E590E0820F76E0900F5CF3BF000
:101F66000900F5CF3CF00900F5CF3DF00A00F5CFAA
:101F76003EF0000E0A6E640E096E5CC007F0086A39
:101F8600BFEC02F0D89007360836D89007360836E8
:101F9600480E0726000E0822470E0724F66E590E35
:101FA6000820F76E0900F5CF37F00900F5CF38F0B5
:101FB6000900F5CF39F00A00F5CF3AF0C8EC14F075
:101FC60037C058F038C059F039C05AF03AC05BF003
:101FD600000E046E0A0E036E5CC001F0026A46EC47
:101FE60002F0D89001360236D89001360236470EF6
:101FF6000124F66E590E0220F76E0900F5CF3BF06C
:102006000900F5CF3CF00900F5CF3DF00A00F5CF09
:102016003EF058C037F059C038F05AC039F05BC0AE
:102026003AF0C8EC14F037C054F038C055F039C057
:1020360056F03AC057F054C037F055C038F056C085
:1020460039F057C03AF0000E3B6E000E3C6E000EA3
:102056003D6E3F0E3E6EC8EC14F037C050F038C0EF
:1020660051F039C052F03AC053F012000A0E5C64C7
:1020760063D0000E046E0A0E036E5CC001F0026AA5
:1020860046EC02F0D89001360236D8900136023678
:10209600470E0124F66E590E0220F76E0900F5CFA1
:1020A6003BF00900F5CF3CF00900F5CF3DF00A0002
:1020B600F5CF3EF0000E0A6E0A0E096E5CC007F000
:1020C600086ABFEC02F0D89007360836D890073673
:1020D6000836240E0726000E0822470E0724F66E41
:1020E600590E0820F76E0900F5CF37F00900F5CF35
:1020F60038F00900F5CF39F00A00F5CF3AF0C8EC10
:1021060014F037C058F038C059F039C05AF03AC008
:102116005BF058C037F059C038F05AC039F05BC090
:102126003AF0000E3B6E000E3C6E000E3D6E3F0E0A
:102136003E6EC8EC14F091D75C50040D470EF324A4
:10214600F66E590EF420F76E0900F5CF37F0090048
:10215600F5CF38F00900F5CF39F00A00F5CF3AF09F
:10216600000E3B6E000E3C6E000E3D6E3F0E3E6E48
:10217600C8EC14F037C050F038C051F039C052F0F6
:102186003AC053F0120000018A5100018B11000180
:102196008C1100018D11D8A40AD0000E00018A6F9F
:1021A600000E8B6F800E8C6F3F0E8D6F1200180E17
:1021B600016E720E026E310E036E440E046E8AC0FC
:1021C60005F08BC006F08CC007F08DC008F034EC2B
:1021D60007F0D8B00FD0000E01013E6F220E3D6F02
:1021E600FF0E00018A6FFF0E8B6F7F0E8C6F7F0EC6
:1021F6008D6F12008AC001F08BC002F08CC003F014
:102206008DC004F0870E056E480E066E3A0E076EF8
:10221600C40E086E34EC07F0D8B00FD0000E0101E2
:102226003E6F220E3D6F000E00018A6F000E8B6F0F
:10223600000E8C6F000E8D6F120000018DAF02D064
:10224600010E01D0000E0001946F000194510001AF
:10225600D8B412D08AC001F08BC002F08CC003F053
:102266008DC004F087EC01F001C08AF002C08BF04B
:1022760003C08CF004C08DF08AC037F08BC038F0F4
:102286008CC039F08DC03AF03B0E3B6EAA0E3C6E08
:10229600B80E3D6E3F0E3E6EC8EC14F037C08AF0A5
:1022A60038C08BF039C08CF03AC08DF08AC074F01B
:1022B6008BC075F08CC076F08DC077F0A5EC06F07B
:1022C60074C08EF075C08FF076C090F077C091F034
:1022D6008EC059F08FC05AF090C05BF091C05CF090
:1022E600B2EC03F059C092F05AC093F08AC074F071
:1022F6008BC075F08CC076F08DC077F092C007F079
:1023060093C008F0000E08BEFF0E096E0A6E010E9D
:1023160095EC09F007C078F008C079F009C07AF0AA
:102326000AC07BF0BFEC01F074C08AF075C08BF078
:1023360076C08CF077C08DF08AC074F08BC075F0D3
:102346008CC076F08DC077F0770E0001786F7D0E29
:102356000001796F000E00017B6F090E7A6F1DEC8C
:1023660006F074C084F075C085F076C086F077C03C
:1023760087F092C088F093C089F098EC05F084C08D
:102386008AF085C08BF086C08CF087C08DF0000186
:1023960094510001D8B434D000018A2916E1000115
:1023A6008B2913E17F0E00018C190FE17F0E0001CE
:1023B6008D19D8A40AD0000E00018A6F000E8B6F0B
:1023C600000E8C6F000E8D6F1200000E1E6E000E3A
:1023D6001F6E800E206E3F0E216E8AC022F08BC0CB
:1023E60023F08CC024F08DC025F00CEC12F01EC03A
:1023F6008AF01FC08BF020C08CF021C08DF0120037
:102406008AC08AF08BC08BF08CC08CF08DC08DF0AA
:1024160012002150800B2A6E21502124356E20BED9
:1024260035803550D8B40DD03528D8A408D0000E44
:102436001E6E000E1F6E000E206E000E216E208E88
:1024460006D0000E1E6E000E1F6E000E206E000ED1
:10245600216E2550800B2A1A25502524366E24BE5F
:1024660036803650D8B40DD03628D8A408D0000E01
:10247600226E000E236E000E246E000E256E248E34
:1024860006D0000E226E000E236E000E246E000E85
:10249600256E2250231024102510D8A415D0000E26
:1024A6001E6E000E1F6E000E206E000E216E800E38
:1024B60020127F0E21121EC01EF01FC01FF020C06A
:1024C60020F021C021F012003550D8A411D0000E02
:1024D6001E6E000E1F6E000E206E000E216E1EC0B8
:1024E6001EF01FC01FF020C020F021C021F01200F6
:1024F6003650266E276A261E271E264A272A35505C
:10250600286E296A26502826275029227F0E28243D
:102516002F6E000E2920306E1EC02BF01FC02CF02F
:1025260020C02DF021C02EF0000E1E6E000E1F6E74
:10253600000E206E000E216E000E316E000E326E01
:10254600000E336E000E346E000E366E28D03650F6
:10255600D8B411D0D8902B362C362D362E36D890AE
:102566001E361F362036213634BE1E80D8903136B0
:1025760032363336343622502B5C23502C582450B6
:102586002D5825502E58D8A009D0348C22502B5EB9
:1025960023502C5A24502D5A25502E5A362A190EBD
:1025A6003664D5D72B502C102D102E10D8B411D040
:1025B60031800FD0D8901E361F362036213634BED5
:1025C6001E80D89031363236333634362F06D8A0B0
:1025D600300620AEEFD7000E366E34AE16D0FF0EA4
:1025E6003114266EFF0E3214276EFF0E3314286E3A
:1025F6007F0E3414296E2650271028102910D8A4CF
:1026060002D01EA002D0010E366E3650D8B41FD0AE
:10261600010E1E26000E1F222022212221A017D0E5
:102626001EC026F01FC027F020C028F021C029F0C8
:102636002934293228322732263226C01EF027C0F6
:102646001FF028C020F029C021F02F4A302A30BEC2
:1026560010D0305003E12F28D8A00BD0000E306EDA
:102666002F68000E1E6E000E1F6E000E206E000EEE
:10267600216E30BE05D0305011E12F04D8B00ED0F7
:10268600000E306E000E2F6E000E1E6E000E1F6EB8
:10269600000E206E000E216E000E2A6E2FC035F041
:1026A60035A002D0208E01D0209ED8903530216EE4
:1026B6002A5021121EC01EF01FC01FF020C020F09D
:1026C60021C021F012000450800B096E045004242E
:1026D6000F6E03BE0F800FC014F0156AFF0E0114B3
:1026E6001A6EFF0E02141B6E7F0E03141C6E000E74
:1026F60004141D6E14501510D8B405D01C8E142861
:102706001510D8A408D0000E1A6E000E1B6E000E0F
:102716001C6E000E1D6E14501510D8A409D0000EA4
:10272600016E000E026E000E036E000E046E1200A5
:102736000950D8B41AD0000E166E000E176E400E51
:10274600186E000E196E800E1812FF0E1912000E6A
:1027560001013E6F210E3D6F16C001F017C002F059
:1027660018C003F019C004F0120014281510D8A4DC
:1027760011D0000E166E000E176E800E186E7F0EAC
:10278600196E16C001F017C002F018C003F019C088
:1027960004F01200810E1426FF0E15221450010BB0
:1027A6000F6E1534153214327F0E1426000E1522C4
:1027B600D8901A340B6E1B340C6E1C340D6E1D34FF
:1027C6000E6E000E1A6E000E1B6E000E1C6E000EB4
:1027D6001D6E000E106E000E116E000E126E010EB2
:1027E600136E0F50D8B405D0D8900B360C360D3674
:1027F6000E36000E0A6E52D010501A1211501B12CD
:1028060012501C1213501D121A500B5C1B500C5800
:102816001C500D581D500E58D8A011D01A500B5EE2
:102826001B500C5A1C500D5A1D500E5A10501A2689
:1028360011501B2212501C2213501D2214D010C0FE
:1028460005F011C006F012C007F013C008F0051E0F
:10285600061E071E081E05501A1606501B160750A0
:102866001C1608501D1610C005F011C006F012C047
:1028760007F013C008F0D890083207320632053246
:1028860005C010F006C011F007C012F008C013F022
:10289600D8900B360C360D360E360A2A180E0A64F8
:1028A600ABD71AC005F01BC006F01CC007F01DC050
:1028B60008F0D890083207320632053205C01AF001
:1028C60006C01BF007C01CF008C01DF0010E1A144C
:1028D600106E000E1B14116E000E1C14126E000EEC
:1028E6001D14136E1AC005F01BC006F01CC007F0BD
:1028F6001DC008F0D890083207320632053205C0EE
:102906001AF006C01BF007C01CF008C01DF01050DE
:102916001A2611501B2212501C2213501D221DA0D4
:1029260017D01AC005F01BC006F01CC007F01DC06A
:1029360008F0D890083207320632053205C01AF080
:1029460006C01BF007C01CF008C01DF0144A152A6B
:10295600FF0E1A14166EFF0E1B14176E7F0E1C1434
:10296600186E000E1D14196E14C00FF00FB0188EDD
:10297600D8900F30196E199E16C001F017C002F0DC
:1029860018C003F019C004F012003A50800B436ED1
:102996003A503A24496E39BE49804950D8B40DD0D0
:1029A6004928D8A408D0000E376E000E386E000EE7
:1029B600396E000E3A6E398E08D0000E376E000E54
:1029C600386E000E396E000E3A6E3E50800B431A7A
:1029D6003E503E24486E3DBE48804850D8B40DD087
:1029E6004828D8A408D0000E3B6E000E3C6E000EA0
:1029F6003D6E000E3E6E3D8E08D0000E3B6E000E04
:102A06003C6E000E3D6E000E3E6E4850D8B403D0AC
:102A16004950D8A409D0000E376E000E386E000E4D
:102A2600396E000E3A6E12003D503702F3CF4EF06B
:102A3600F4CF4FF04E50446E456A466A476A4F508F
:102A46004A6E4B6A4C6A4D6A3C503802F3CF4EF0E0
:102A5600F4CF4FF04E504426000E45224622472220
:102A66004F504A26000E4B224C224D223B50390233
:102A7600F3CF4EF0F4CF4FF04E504426000E4522D1
:102A8600462247224F504A26000E4B224C224D2208
:102A960046C047F045C046F044C045F0446A3B5046
:102AA6003802F3CF4EF0F4CF4FF04E5044264F503D
:102AB6004522000E4622000E47223C503702F3CF35
:102AC6004EF0F4CF4FF04E5044264F504522000EA4
:102AD6004622000E472246C047F045C046F044C095
:102AE60045F0446A3B503702F3CF4EF0F4CF4FF037
:102AF6004E5044264F504522000E4622000E4722D5
:102B06003D503802F3CF4EF0F4CF4FF04E504A26E8
:102B16004F504B22000E4C22000E4D223C503902E3
:102B2600F3CF4EF0F4CF4FF04E504A264F504B2283
:102B3600000E4C22000E4D223D503902F3CF4EF0CE
:102B4600F4CF4FF04E503F6E4F50406E416A426A8E
:102B560041C042F040C041F03FC040F03F6A3F50A4
:102B66004A2640504B2241504C2242504D2244C0EE
:102B76003FF045C040F046C041F047C042F0190E54
:102B860005D0D8904232413240323F32E82EF9D752
:102B96003F504A2640504B2241504C2242504D2233
:102BA60046C047F045C046F044C045F0446A485028
:102BB60049C03FF0406A3F26000E4022820E3F2465
:102BC6004E6EFF0E40204F6E0FD0D8904A364B36D1
:102BD6004C364D3647BE4A80D89044364536463642
:102BE60047364E06D8A04F064CAEEFD7000E486EBD
:102BF60047AE16D0FF0E44143F6EFF0E4514406ECE
:102C0600FF0E4614416E7F0E4714426E3F50401031
:102C160041104210D8A402D04AA002D0010E486E3C
:102C26004850D8B41FD0010E4A26000E4B224C2223
:102C36004D224DA017D04AC03FF04BC040F04CC0CB
:102C460041F04DC042F042344232413240323F32CE
:102C56003FC04AF040C04BF041C04CF042C04DF07E
:102C66004E4A4F2A4FBE0DD04F5003E14E28D8A0F2
:102C760008D0000E4A6E000E4B6E800E4C6E7F0E14
:102C860020D04FBE05D04F500EE14E04D8B00BD029
:102C9600000E4A6E000E4B6E000E4C6E000E4D6E10
:102CA600000E436E0FD04EC049F0FF0E4A16FF0EBF
:102CB6004B167F0E4C16000E4D1649B04C8ED89012
:102CC60049304D6E43504D124AC037F04BC038F074
:102CD6004CC039F04DC03AF01200586E58AE05D1CE
:102CE600586C5850800A120FD8A098D0000E0A6E61
:102CF6000A0E096E000E046E640E036E5850016EC5
:102D0600026A01BE020646EC02F001C007F002C0EC
:102D160008F0BFEC02F0D89007360836D890073690
:102D26000836240E0726000E0822470E0724F66EE4
:102D3600590E0820F76E0900F5CF3BF00900F5CFD4
:102D46003CF00900F5CF3DF00A00F5CF3EF0000E4D
:102D56000A6E640E096E5850076E086A07BE0806AA
:102D6600BFEC02F0D89007360836D89007360836FA
:102D7600480E0726000E0822470E0724F66E590E47
:102D86000820F76E0900F5CF37F00900F5CF38F0C7
:102D96000900F5CF39F00A00F5CF3AF0C8EC14F087
:102DA60037C054F038C055F039C056F03AC057F025
:102DB60054C037F055C038F056C039F057C03AF015
:102DC600000E046E0A0E036E5850016E026A01BEB2
:102DD600020646EC02F0D89001360236D89001364B
:102DE6000236470E0124F66E590E0220F76E0900D0
:102DF600F5CF3BF00900F5CF3CF00900F5CF3DF0EB
:102E06000A00F5CF3EF0C8EC14F037C050F038C0D9
:102E160051F039C052F03AC053F012005850800AAF
:102E2600750FD8A04DD0000E0A6E0A0E096E5850C6
:102E3600076E086A07BE0806BFEC02F0D890073690
:102E46000836D89007360836240E0726000E0822C4
:102E5600470E0724F66E590E0820F76E0900F5CFC7
:102E660037F00900F5CF38F00900F5CF39F00A0040
:102E7600F5CF3AF0000E046E0A0E036E5850016E3E
:102E8600026A01BE020646EC02F0D890013602360E
:102E9600D89001360236470E0124F66E590E0220EE
:102EA600F76E0900F5CF3BF00900F5CF3CF00900BD
:102EB600F5CF3DF00A00F5CF3EF0C8EC14F0A5D7EB
:102EC6005850040D470EF324F66E590EF420F76E93
:102ED6000900F5CF50F00900F5CF51F00900F5CF04
:102EE60052F00A00F5CF53F012005850800A120F24
:102EF600D8A098D0000E0A6E0A0E096E000E046E57
:102F0600640E036E5850016E026A01BE020646EC5C
:102F160002F001C007F002C008F0BFEC02F0D89042
:102F260007360836D89007360836240E0726000ED0
:102F360008227B0E0724F66E590E0820F76E09004C
:102F4600F5CF3BF00900F5CF3CF00900F5CF3DF099
:102F56000A00F5CF3EF0000E0A6E640E096E585058
:102F6600076E086A07BE0806BFEC02F0D89007365F
:102F76000836D89007360836480E0726000E08226F
:102F86007B0E0724F66E590E0820F76E0900F5CF62
:102F960037F00900F5CF38F00900F5CF39F00A000F
:102FA600F5CF3AF0C8EC14F037C054F038C055F0FD
:102FB60039C056F03AC057F054C037F055C038F013
:102FC60056C039F057C03AF0000E046E0A0E036E72
:102FD6005850016E026A01BE020646EC02F0D89015
:102FE60001360236D890013602367B0E0124F66E83
:102FF600590E0220F76E0900F5CF3BF00900F5CF18
:103006003CF00900F5CF3DF00A00F5CF3EF0C8ECE4
:1030160014F037C050F038C051F039C052F03AC001
:1030260053F012005850800A750FD8A04DD0000EEC
:103036000A6E0A0E096E5850076E086A07BE080621
:10304600BFEC02F0D89007360836D8900736083617
:10305600240E0726000E08227B0E0724F66E590E54
:103066000820F76E0900F5CF37F00900F5CF38F0E4
:103076000900F5CF39F00A00F5CF3AF0000E046EDC
:103086000A0E036E5850016E026A01BE020646EC35
:1030960002F0D89001360236D890013602367B0E01
:1030A6000124F66E590E0220F76E0900F5CF3BF0AB
:1030B6000900F5CF3CF00900F5CF3DF00A00F5CF49
:1030C6003EF0C8EC14F0A5D75850040D7B0EF3243F
:1030D600F66E590EF420F76E0900F5CF50F0090090
:1030E600F5CF51F00900F5CF52F00A00F5CF53F0B5
:1030F600120000016351800B0001706F00016351E3
:1031060063250001726F000162AF02D00001728177
:10311600000172510001D8B412D000017229D8A45E
:1031260009D0000E0001606F000E616F000E626F25
:10313600000E636F0001628F000E000108D0000EC2
:103146000001606F000E616F000E626F000E636F0C
:1031560000016751800B0001716F00017051000181
:103166007119D8B402D00001708D0001675167252E
:103176000001716F000166AF02D00001718100018C
:1031860071510001D8B412D000017129D8A409D018
:10319600000E0001646F000E656F000E666F000E74
:1031A600676F0001668F000E000108D0000E000157
:1031B600646F000E656F000E666F000E676F00018C
:1031C60072510001715DD8B024D0000170AD03D0FA
:1031D600800E0001701B72C073F071C072F073C074
:1031E60071F060C073F064C060F073C064F061C0D9
:1031F60073F065C061F073C065F062C073F066C0BD
:1032060062F073C066F063C073F067C063F073C0AA
:1032160067F0000E0001736F000172510001686FC4
:10322600696B0001681F691F684B692B00017151AA
:1032360000016A6F6B6B0001685100016A2700018B
:10324600695100016B2300016BBF3DD000016B513A
:1032560005E11A0E00016A5DD8A035D00001605163
:10326600000161110001621100016311D8B402D09E
:10327600010E01D0000E0001736F000E0001606F99
:10328600000E616F000E626F000E636F71C072F008
:1032960020D0000173A107D00001D8907331010935
:1032A6000001736F03D00001D8907333000160A151
:1032B60002D00001738F00016335633362336133DB
:1032C60060330001722B000171510001725DD8A0BC
:1032D600E0D7000170BD3FD0000172510001D8A4B3
:1032E6000AD0000E0001606F000E616F000E626F63
:1032F600000E636F12000001645100016027000197
:10330600655100016123000166510001622300013D
:10331600675100016323000163A1CCD0000173A1B2
:1033260009D00001D89073330001735101090001DF
:10333600736F03D00001D8907333000160A102D0EF
:103346000001738F00016335633362336133603389
:103356000001722BAFD0000164510001605D0001D5
:103366006551000161590001665100016259000171
:103376006351800A0001686F00016751800A0001ED
:103386006859D8B050D060C068F061C069F062C0BA
:103396006AF063C06BF00001681F691F6A1F6B1F2C
:1033A600682B000E69236A236B2300016451000118
:1033B600682500016C6F000165510001692100015B
:1033C6006D6F0001665100016A2100016E6F0001F8
:1033D600675100016B2100016F6FFF0E00016C2524
:1033E6000001606FFF0E00016D210001616FFF0E8D
:1033F60000016E210001626FFF0E00016F210001C6
:10340600636F800E0001701B0001736D0001735124
:103416000001D8A418D0010E00016027000E612318
:103426006223632310D0000164510001605F000134
:1034360065510001615B000166510001625B00019C
:1034460067510001635B00016051000161110001D9
:10345600621100016311D8A42AD000017351000142
:10346600D8A425D0000E0001606F000E616F000E1B
:10347600626F000E636F12000001D89060376137EB
:1034860062376337000173AF02D00001608100012B
:1034960073A103D0D880000102D00001D890733701
:1034A600000172510001D8B402D000017207000178
:1034B60062AFE2D7000E0001716F000173AF0DD04D
:1034C60073C068F07F0E00016817D8A403D000010E
:1034D60060A103D0010E0001716F0001715100015E
:1034E600D8B426D0010E00016027000E61236223A6
:1034F6006323000163A11CD060C068F061C069F05D
:1035060062C06AF063C06BF000016B356B336A33DF
:103516006933683368C060F069C061F06AC062F000
:103526006BC063F000017229D8B402D00001722B7F
:1035360000017229D8B405D0000172510001D8A447
:1035460011D0000E0001606F000E616F000E626FF9
:10355600000E636F000172510001D8A403D0000E63
:103566000001706F000172A103D00001628F02D0CA
:103576000001629F0001D89072310001636F000163
:1035860070AF02D00001638F60C060F061C061F06F
:1035960062C062F063C063F012000A0E01011C6F84
:1035A600010E01011D6FB3EF20F0250E0101341944
:1035B600D8B406D00101345143EC01F0B3EF20F04A
:1035C600000E01012D6F000E2C6F000E0101216F00
:1035D600000E206F08C1F6FF09C1F7FF0800F5507D
:1035E60065EC01F0D8A03FD0000E01012D6F000E52
:1035F6002C6F2CC101F02DC102F0000E046E0A0ED4
:10360600036E74EC01F001C02CF102C02DF1D00E56
:103616000101126FFF0E0101136F08C1F6FF09C108
:10362600F7FF0800F5500101146F156B01011251E7
:103636000101142701011351010115230101145140
:1036460001012C270101155101012D230101084B10
:10365600092B08C1F6FF09C1F7FF0800F55065EC14
:1036660001F0D8B0C6D708C1F6FF09C1F7FF0800B8
:10367600F5502E0AD8A434D00101218D0101084B42
:10368600092B000E0101336F000E326F1ED032C1BE
:1036960001F033C102F0000E046E0A0E036E74ECE4
:1036A60001F008C1F6FF09C1F7FF0800F550012631
:1036B600000E0222D00E01240101326FFF0E0220FD
:1036C6000101336F0101084B092B08C1F6FF09C13F
:1036D600F7FF0800F55065EC01F0D8A06BD0D7D7FE
:1036E600000E0101336F000E326F0101218962D095
:1036F6000101218577D00101325101013311D8B47E
:103706000ED001011E510101325D01011F5101015F
:103716003359D8B004D032C11EF133C11FF10101B3
:103726002C5101011E5D01012D5101011F59D8B017
:1037360009D001011E5101012C5F01011F51010138
:103746002D5B09D0000E01012D6F000E2C6F03D0EA
:10375600200E43EC01F001012C07D8A02D07010132
:103766002C29F6E101012D29D8B40BD0F1D71AC1C5
:10377600D9FF1BC1DAFFDF5043EC01F001011A4B00
:103786001B2B01011E07D8A01F0701011E29EFE10F
:1037960001011F29D8B4B3EF20F0E9D7340E010197
:1037A6001A6F010E01011B6F000E01011F6F010E42
:1037B6001E6FA1D708C1F6FF09C1F7FF0101084B2B
:1037C600092B0800F5CF34F101013451000AD8B4B1
:1037D6001200640AD8B406D0020AD8B489D70F0AF0
:1037E600D8A4DCD7070E01012115D8B461D3010195
:1037F60021A905D0000E0101336F060E326F1CC1E0
:10380600D9FF1DC1DAFFDECF2EF1DECF2FF1DECFDD
:1038160030F1DECF31F1040E01011C27000E1D230D
:10382600010131AF15D02EC101F02FC102F030C118
:1038360003F031C104F087EC01F001C02EF102C0A3
:103846002FF103C030F104C031F1030E0101201342
:10385600000E01012B6F000E2A6F01012E5101018E
:103866002F110101301101013111D8B488D00101A5
:1038760030353135820F01012A6F01012B6BFF0EA6
:103886002B2301012A07D8A02B072AC101F02BC13F
:1038960002F0000E046E030E036E74EC01F001C01C
:1038A6002AF102C02BF12AC107F02BC108F0000E45
:1038B6000A6E0A0E096EBFEC02F007C02AF108C0B4
:1038C6002BF101012BAF04D001012A07D8A02B0749
:1038D60001012A51000870EC16F050C022F151C0C7
:1038E60023F152C024F153C025F122C137F023C180
:1038F60038F024C139F025C13AF02EC13BF02FC172
:103906003CF030C13DF031C13EF0C8EC14F037C098
:1039160022F138C023F139C024F13AC025F122C181
:1039260001F023C102F024C103F025C104F0000E0A
:10393600056E000E066E800E076E3F0E086E34ECA6
:1039460007F0D8B005D001012A07D8A02B0717D059
:1039560022C101F023C102F024C103F025C104F005
:10396600000E056E000E066E200E076E410E086EE6
:1039760034EC07F0D8A003D001012A4B2B2B010110
:1039860033BF08D00101335123E10D0E0101325D31
:10399600D8B01ED02EC160F02FC161F030C162F0E8
:1039A60031C163F00101325189EC0FF050C064F06F
:1039B60051C065F052C066F053C067F07CEC18F059
:1039C60060C02EF161C02FF162C030F163C031F1E9
:1039D60001012BBF08D001012B512AE10A0E01017A
:1039E6002A5DD8B025D001012E5101012F11010108
:1039F600301101013111D8B467D02EC159F02FC151
:103A06005AF030C15BF031C15CF0B2EC03F05950B2
:103A16005A105B105C10D8A457D001012BBF54D0AC
:103A260001012B5105E1020E01012A5DD8A04CD0FF
:103A360022C101F023C102F024C103F025C104F024
:103A46005F0E056E700E066E890E076E400E086ECE
:103A560034EC07F0D8B003D00101F70E02D0010113
:103A6600F80E2A27FF0E2B2301012A5170EC16F0BF
:103A760050C022F151C023F152C024F153C025F1A8
:103A86002EC101F02FC102F030C103F031C104F0A4
:103A960022C105F023C106F024C107F025C108F0B4
:103AA600C4EC07F001C026F102C027F103C028F1DB
:103AB60004C029F1000E01012E6F000E2F6F000EBB
:103AC600306F000E316F3CD02EC159F02FC15AF025
:103AD60030C15BF031C15CF0B2EC03F059C026F1A5
:103AE6005AC027F15BC028F15CC029F12EC174F0E1
:103AF6002FC175F030C176F031C177F026C107F0DD
:103B060027C108F028C109F029C10AF0000E95EC7A
:103B160009F007C078F008C079F009C07AF00AC049
:103B26007BF0BFEC01F074C02EF175C02FF176C0AA
:103B360030F177C031F1000E01012B6F000E2A6FB4
:103B4600010E0101346F0A0E01013419D8B41ED0DA
:103B560001013451040DAF0EF324F66E590EF42014
:103B6600F76E0900F5500101265D0900F5500101C7
:103B760027590900F550010128590900F55001019E
:103B86002959D8A003D00101342BDDD734C112F155
:103B96000101136B12BF13070101325101011227F4
:103BA600010133510101132301012A510101122799
:103BB60001012B51010113230101125101012C5F57
:103BC6000101135101012D5B010132510101331134
:103BD600D8B404D001012C07D8A02D07030E01018B
:103BE60020150101126F000E010121150101136F4D
:103BF6000101125101011311D8B408D003D0200ECF
:103C060043EC01F001012C07D8A02D0701012DBFBF
:103C160007D001012D51F3E101012C05D8B0EFD7F2
:103C2600030E010120150101126F000E010121157D
:103C36000101136F0101125101011311D8B44AD0C9
:103C46002D0E43EC01F046D026C101F027C102F04B
:103C560028C103F029C104F001013451040DAF0E4F
:103C6600F324F66E590EF420F76E0900F5CF05F031
:103C76000900F5CF06F00900F5CF07F00A00F5CFE9
:103C860008F07EEC02F001C022F102C023F103C06D
:103C960024F104C025F122C10EF023C10FF024C186
:103CA60010F025C111F00A0E126E000E136E000EF2
:103CB600146E000E156E13EC02F00EC022F10FC04A
:103CC60023F110C024F111C025F101012251300F5A
:103CD60043EC01F00101340701013429D8B408D0BE
:103CE600B3D7300E43EC01F001012A07D8A02B0709
:103CF60001012BBF07D001012B51F3E101012A0578
:103D0600D8B0EFD7010133BF0CD00101335105E123
:103D1600090E0101325DD8A004D0080E0101346FEE
:103D260002D032C134F1010134510101325F000E7B
:103D3600010134BFFF0E0101335B01013451010162
:103D4600D8B403D02E0E43EC01F00101345170ECCF
:103D560016F050C016F151C017F152C018F153C0F9
:103D660019F12EC13BF02FC13CF030C13DF031C1FD
:103D76003EF016C137F017C138F018C139F019C135
:103D86003AF0C8EC14F037C059F038C05AF039C0D0
:103D96005BF03AC05CF0B2EC03F059C026F15AC0B1
:103DA60027F15BC028F15CC029F16DD026C101F076
:103DB60027C102F028C103F029C104F001013451E2
:103DC600040DAF0EF324F66E590EF420F76E0900BB
:103DD600F5CF05F00900F5CF06F00900F5CF07F09D
:103DE6000A00F5CF08F07EEC02F001C022F102C015
:103DF60023F103C024F104C025F122C10EF023C132
:103E06000FF024C110F025C111F00A0E126E000E3B
:103E1600136E000E146E000E156E13EC02F00EC03B
:103E260022F10FC023F110C024F111C025F10101C8
:103E36002251300F43EC01F026C10EF027C10FF0DE
:103E460028C110F029C111F001013451040DAF0E43
:103E5600F324F66E590EF420F76E0900F5CF12F032
:103E66000900F5CF13F00900F5CF14F00A00F5CFDD
:103E760015F013EC02F00EC026F10FC027F110C0AA
:103E860028F111C029F10101340701013429D8B400
:103E960008D08CD7300E43EC01F001013207D8A0D0
:103EA60033070101325101013311D8B459D1F2D788
:103EB6001CC1D9FF1DC1DAFFDECF26F1DDCF27F108
:103EC6000101000E27BFFF0E286F296F020E0101A8
:103ED6001C27000E1D23010129AF0CD0030E010182
:103EE60020130101291F281F271F266D000E2723D7
:103EF600282329230101325101013311D8A40DD001
:103F06000101265101012711010128110101291181
:103F1600D8A403D00101324B332B010E0101346FBB
:103F26000A0E01013419D8B41ED001013451040D12
:103F3600AF0EF324F66E590EF420F76E0900F55015
:103F46000101265D0900F550010127590900F550C8
:103F5600010128590900F55001012959D8A003D0BB
:103F66000101342BDDD7800E010134BF7F0E010124
:103F7600126F010132510101345D01013351800A92
:103F860001011259D8B003D032C134F118D0010161
:103F96003351800A0101126F010134510101325D72
:103FA600800E010134BF7F0E01011259D8B007D02F
:103FB600010134510101326F336B32BF3307010106
:103FC6002C5101012D11D8B414D0030E0101201576
:103FD6000101126F000E010121150101136F01018C
:103FE600125101011311D8B404D001012C07D8A035
:103FF6002D07010121AD1ED001012C510101325DB9
:1040060001013351800A0101126F01012D51800A0D
:1040160001011259D8B009D00101325101012C5FBA
:104026000101335101012D5B05D0000E01012D6FF9
:10403600000E2C6F800E010134BF7F0E0101126F3E
:1040460001012C510101345D01012D51800A01014C
:104056001259D8B00BD00101345101012C5F000E6A
:10406600010134BFFF0E01012D5B05D0000E0101D9
:104076002D6F000E2C6F01012C5101012D11D8B4AA
:104086000DD0200E43EC01F001012C07D8A02D071E
:1040960001012C5101012D11D8A4F3D7030E010102
:1040A60020150101126F000E010121150101136F88
:1040B6000101125101011311D8B447D02D0E43EC62
:1040C60001F043D032C112F133C113F10101D8908E
:1040D600123713370101D89012371337AF0E01018B
:1040E6001225F66E590E1321F76E0900F5CF05F06D
:1040F6000900F5CF06F00900F5CF07F00A00F5CF65
:1041060008F026C101F027C102F028C103F029C139
:1041160004F07EEC02F001C00EF002C00FF003C006
:1041260010F004C011F00A0E126E000E136E000E8F
:10413600146E000E156E13EC02F00E50300F0101D6
:10414600346F0101345143EC01F001013207D8A06C
:10415600330701013229B6E101013329D8A4B2D7C8
:1041660008C1F6FF09C1F7FF0101084B092B08003A
:10417600F5CF34F101013451D8B41200D8EF1AF05A
:104186000000000000000000000000000000000029
:104196000000000000000000000000000000000019
:1041A6000000000000000000000000000000000009
:1041B60000000000000000000000000000000000F9
:10594600000000803FCDCCCC3D0AD7233C6F1283AC
:105956003A17B7D138ACC52737BD37863595BFD688
:105966003377CC2B325F708930FFE6DB2E08E53CBF
:105976001E6042A20D0000803F000020410000C8CA
:105986004200007A4400401C460050C3470024747D
:10599600498096184B20BCBE4C286B6E4EF90215FA
:1059A60050EC78AD60CAF24971010000000A0000AF
:1059B6000064000000E803000010270000A0860134
:1059C6000040420F008096980000E1F50500CA9A53
:1059D6003B00000000000000000000000000000086
:1059E60000000000000000000000000000000000B1
:1059F60000000000000000000000000000000000A1
:105A06000000000000000000000000000000000090
:105A16000000000000000000000000000000000080
:107D7600000000803F1872313FF0FD753E475863A2
:107D86003D58951D3C82C4AE3AA8782139EF9380C0
:107D960037A092A7354656153400000000C4FF7F71
:107DA6003F80EFFFBE90E1A93EEC8276BE82AD2B0E
:107DB6003E0E3CC3BD87D1133D4178D3BB0A2D2D62
:107DC6002D2D2D2D2D2D2D2D2D2D2D2D2D2D2D2DDD
:107DD6002D2D2D2D2D2D2D2D2D507265646963743D
:107DE600696F6E2044656D6F6E7374726174696F2E
:107DF6006E2D2D2D2D2D2D2D2D2D2D2D2D2D2D2D6C
:107E06002D2D2D2D2D2D2D000A2D2D2D2D2D2D2DEC
:107E16002D2D2D2D2D2D2D2D2D2D2D4D657472696C
:107E2600637320666F7220746865204D6F64656C9D
:107E36002D2D2D2D2D2D2D2D2D2D2D2D2D2D2D2D6C
:107E46002D2D2D2D2D2D2D2D2D2D2D0A002D2D2DAC
:107E56002D2D2D2D2D2D2D2D2D2D2D2D2D2D2D4336
:107E66006F6E667573696F6E204D617472697820E6
:107E7600666F7220746865204D6F64656C2D2D2DBC
:107E86002D2D2D2D2D2D2D2D2D2D2D2D2D2D2D0A3F
:107E9600000A53686F77696E67206F66662074689C
:107EA600652070726564696374696F6E20736B69AF
:107EB6006C6C7320696E2074686520696E707574C9
:107EC60020766563746F723A200A000A4D6F646506
:107ED6006C20416363757261637920636F6E7369A9
:107EE600646572696E672025642074657374206505
:107EF6006E74726965733A20256625250A005072EC
:107F0600696E74696E6720636F6E667573696F6EEE
:107F1600206D61747269780A004D657472696373C5
:107F260020666F7220436C6173732025640A000A11
:107F360050726564696374656420636C6173732051
:107F460025640A0043616C63756C6174696E672011
:107F56006D6574726963730A00282531312E3666A1
:107F66002C202531312E3666290A005072696E742E
:107F7600696E67206D6574726963730A0050726575
:107F8600636973696F6E2025322E32660A00497462
:107F960027732061206D697373203A280A0049749B
:107FA6002773206120686974203A290A00526563A4
:107FB600616C6C2025322E32660A00436C61737345
:107FC600652025643A0A0020202020202020202039
:107FD6002000436C617373202564207C00202025DB
:107FE6006420202000204325642020200025322EF6
:097FF60032662C20002566000013
:020000040020DA
:08000000FFFFFFFFFFFFFFFF00
:020000040030CA
:0E000000000C1F1EFF0181FF0FC00FE00F401C
:00000001FF
